{
  "contractName": "SellTokenR",
  "abi": [
    {
      "inputs": [
        {
          "internalType": "contract TokenR",
          "name": "_tokenContract",
          "type": "address"
        },
        {
          "internalType": "uint256",
          "name": "_tokenPrice",
          "type": "uint256"
        }
      ],
      "payable": false,
      "stateMutability": "nonpayable",
      "type": "constructor"
    },
    {
      "anonymous": false,
      "inputs": [
        {
          "indexed": false,
          "internalType": "address",
          "name": "_buyer",
          "type": "address"
        },
        {
          "indexed": false,
          "internalType": "uint256",
          "name": "_numberOfTokens",
          "type": "uint256"
        }
      ],
      "name": "TokenBuy",
      "type": "event"
    },
    {
      "anonymous": false,
      "inputs": [
        {
          "indexed": false,
          "internalType": "address",
          "name": "_seller",
          "type": "address"
        },
        {
          "indexed": false,
          "internalType": "uint256",
          "name": "_numOfTokens",
          "type": "uint256"
        }
      ],
      "name": "TokenSell",
      "type": "event"
    },
    {
      "constant": true,
      "inputs": [],
      "name": "tokenContract",
      "outputs": [
        {
          "internalType": "contract TokenR",
          "name": "",
          "type": "address"
        }
      ],
      "payable": false,
      "stateMutability": "view",
      "type": "function"
    },
    {
      "constant": true,
      "inputs": [],
      "name": "tokenPrice",
      "outputs": [
        {
          "internalType": "uint256",
          "name": "",
          "type": "uint256"
        }
      ],
      "payable": false,
      "stateMutability": "view",
      "type": "function"
    },
    {
      "constant": true,
      "inputs": [],
      "name": "tokenSold",
      "outputs": [
        {
          "internalType": "uint256",
          "name": "",
          "type": "uint256"
        }
      ],
      "payable": false,
      "stateMutability": "view",
      "type": "function"
    },
    {
      "constant": true,
      "inputs": [
        {
          "internalType": "address",
          "name": "inputAddress",
          "type": "address"
        }
      ],
      "name": "IsAdmin",
      "outputs": [
        {
          "internalType": "bool",
          "name": "",
          "type": "bool"
        }
      ],
      "payable": false,
      "stateMutability": "view",
      "type": "function"
    },
    {
      "constant": false,
      "inputs": [
        {
          "internalType": "uint256",
          "name": "_numOfTokens",
          "type": "uint256"
        }
      ],
      "name": "buyTokens",
      "outputs": [],
      "payable": true,
      "stateMutability": "payable",
      "type": "function"
    },
    {
      "constant": false,
      "inputs": [
        {
          "internalType": "uint256",
          "name": "_numOfTokens",
          "type": "uint256"
        }
      ],
      "name": "sellTokens",
      "outputs": [],
      "payable": false,
      "stateMutability": "nonpayable",
      "type": "function"
    },
    {
      "constant": false,
      "inputs": [],
      "name": "endSell",
      "outputs": [],
      "payable": false,
      "stateMutability": "nonpayable",
      "type": "function"
    }
  ],
  "bytecode": "0x608060405234801561001057600080fd5b50604051610e8b380380610e8b8339818101604052604081101561003357600080fd5b810190808051906020019092919080519060200190929190505050336000806101000a81548173ffffffffffffffffffffffffffffffffffffffff021916908373ffffffffffffffffffffffffffffffffffffffff16021790555081600160006101000a81548173ffffffffffffffffffffffffffffffffffffffff021916908373ffffffffffffffffffffffffffffffffffffffff160217905550806002819055505050610da4806100e76000396000f3fe6080604052600436106100705760003560e01c8063696d816a1161004e578063696d816a146101255780636c11bcd31461013c5780637ff9b59614610177578063b11e3c1a146101a257610070565b80633610724e14610075578063519ee19e146100a357806355a373d6146100ce575b600080fd5b6100a16004803603602081101561008b57600080fd5b810190808035906020019092919050505061020b565b005b3480156100af57600080fd5b506100b861057b565b6040518082815260200191505060405180910390f35b3480156100da57600080fd5b506100e3610581565b604051808273ffffffffffffffffffffffffffffffffffffffff1673ffffffffffffffffffffffffffffffffffffffff16815260200191505060405180910390f35b34801561013157600080fd5b5061013a6105a7565b005b34801561014857600080fd5b506101756004803603602081101561015f57600080fd5b81019080803590602001909291905050506108d5565b005b34801561018357600080fd5b5061018c610c25565b6040518082815260200191505060405180910390f35b3480156101ae57600080fd5b506101f1600480360360208110156101c557600080fd5b81019080803573ffffffffffffffffffffffffffffffffffffffff169060200190929190505050610c2b565b604051808215151515815260200191505060405180910390f35b61021781600254610c84565b341461026e576040517f08c379a0000000000000000000000000000000000000000000000000000000008152600401808060200182810382526026815260200180610d276026913960400191505060405180910390fd5b80600160009054906101000a900473ffffffffffffffffffffffffffffffffffffffff1673ffffffffffffffffffffffffffffffffffffffff166370a08231306040518263ffffffff1660e01b8152600401808273ffffffffffffffffffffffffffffffffffffffff1673ffffffffffffffffffffffffffffffffffffffff16815260200191505060206040518083038186803b15801561030e57600080fd5b505afa158015610322573d6000803e3d6000fd5b505050506040513d602081101561033857600080fd5b810190808051906020019092919050505010156103a0576040517f08c379a000000000000000000000000000000000000000000000000000000000815260040180806020018281038252602d815260200180610cb1602d913960400191505060405180910390fd5b60011515600160009054906101000a900473ffffffffffffffffffffffffffffffffffffffff1673ffffffffffffffffffffffffffffffffffffffff1663a9059cbb33846040518363ffffffff1660e01b8152600401808373ffffffffffffffffffffffffffffffffffffffff1673ffffffffffffffffffffffffffffffffffffffff16815260200182815260200192505050602060405180830381600087803b15801561044d57600080fd5b505af1158015610461573d6000803e3d6000fd5b505050506040513d602081101561047757600080fd5b81019080805190602001909291905050501515146104fd576040517f08c379a00000000000000000000000000000000000000000000000000000000081526004018080602001828103825260128152602001807f746f6b656e20627579206578656375746564000000000000000000000000000081525060200191505060405180910390fd5b806003600082825401925050819055507f0c031f45b18305561115944c48c15b7aef3fdfe9182afbf6b01c249542ec6a113382604051808373ffffffffffffffffffffffffffffffffffffffff1673ffffffffffffffffffffffffffffffffffffffff1681526020018281526020019250505060405180910390a150565b60035481565b600160009054906101000a900473ffffffffffffffffffffffffffffffffffffffff1681565b6000809054906101000a900473ffffffffffffffffffffffffffffffffffffffff1673ffffffffffffffffffffffffffffffffffffffff163373ffffffffffffffffffffffffffffffffffffffff161461064c576040517f08c379a0000000000000000000000000000000000000000000000000000000008152600401808060200182810382526023815260200180610d4d6023913960400191505060405180910390fd5b6000809054906101000a900473ffffffffffffffffffffffffffffffffffffffff1673ffffffffffffffffffffffffffffffffffffffff166108fc479081150290604051600060405180830381858888f193505050501580156106b3573d6000803e3d6000fd5b50600160009054906101000a900473ffffffffffffffffffffffffffffffffffffffff1673ffffffffffffffffffffffffffffffffffffffff1663a9059cbb6000809054906101000a900473ffffffffffffffffffffffffffffffffffffffff16600160009054906101000a900473ffffffffffffffffffffffffffffffffffffffff1673ffffffffffffffffffffffffffffffffffffffff166370a08231306040518263ffffffff1660e01b8152600401808273ffffffffffffffffffffffffffffffffffffffff1673ffffffffffffffffffffffffffffffffffffffff16815260200191505060206040518083038186803b1580156107b357600080fd5b505afa1580156107c7573d6000803e3d6000fd5b505050506040513d60208110156107dd57600080fd5b81019080805190602001909291905050506040518363ffffffff1660e01b8152600401808373ffffffffffffffffffffffffffffffffffffffff1673ffffffffffffffffffffffffffffffffffffffff16815260200182815260200192505050602060405180830381600087803b15801561085757600080fd5b505af115801561086b573d6000803e3d6000fd5b505050506040513d602081101561088157600080fd5b810190808051906020019092919050505061089b57600080fd5b6000809054906101000a900473ffffffffffffffffffffffffffffffffffffffff1673ffffffffffffffffffffffffffffffffffffffff16ff5b80600160009054906101000a900473ffffffffffffffffffffffffffffffffffffffff1673ffffffffffffffffffffffffffffffffffffffff166370a08231336040518263ffffffff1660e01b8152600401808273ffffffffffffffffffffffffffffffffffffffff1673ffffffffffffffffffffffffffffffffffffffff16815260200191505060206040518083038186803b15801561097557600080fd5b505afa158015610989573d6000803e3d6000fd5b505050506040513d602081101561099f57600080fd5b81019080805190602001909291905050501015610a24576040517f08c379a00000000000000000000000000000000000000000000000000000000081526004018080602001828103825260118152602001807f6e6f7420656e6f75676820746f6b656e7300000000000000000000000000000081525060200191505060405180910390fd5b6402540be4008102471015610a84576040517f08c379a0000000000000000000000000000000000000000000000000000000008152600401808060200182810382526049815260200180610cde6049913960600191505060405180910390fd5b600160009054906101000a900473ffffffffffffffffffffffffffffffffffffffff1673ffffffffffffffffffffffffffffffffffffffff16636fa8038730836040518363ffffffff1660e01b8152600401808373ffffffffffffffffffffffffffffffffffffffff1673ffffffffffffffffffffffffffffffffffffffff16815260200182815260200192505050602060405180830381600087803b158015610b2d57600080fd5b505af1158015610b41573d6000803e3d6000fd5b505050506040513d6020811015610b5757600080fd5b8101908080519060200190929190505050503373ffffffffffffffffffffffffffffffffffffffff166108fc6402540be40083029081150290604051600060405180830381858888f19350505050158015610bb6573d6000803e3d6000fd5b507fce63ca7dc8dfc0313cea1035f873e3706e0161f9895f670682c0dab3969e36203382604051808373ffffffffffffffffffffffffffffffffffffffff1673ffffffffffffffffffffffffffffffffffffffff1681526020018281526020019250505060405180910390a150565b60025481565b60008060009054906101000a900473ffffffffffffffffffffffffffffffffffffffff1673ffffffffffffffffffffffffffffffffffffffff168273ffffffffffffffffffffffffffffffffffffffff16149050919050565b600080821480610ca15750828283850292508281610c9e57fe5b04145b610caa57600080fd5b9291505056fe73656c6c20636f6e747261637420646f6573206e6f742068617665207468657365206d616e7920746f6b656e73636f6e747261637420646f6573206e6f74206861766520656e6f7567682065746820696e2062616c616e636520666f7220776869636820757365722077616e747320746f2073656c6c6c657373207765692073656e7420666f72207468652073706563696669656420746f6b656e736163636f756e74206e6f7420617574686f726973656420746f20656e642073616c652ea265627a7a72315820ca01febe0d65271c891b98ffa41069ab4f8229d6b53551ec072cae3d30e1b08764736f6c63430005100032",
  "source": "pragma solidity >=0.4.22 <0.9.0;\n\nimport \"./TokenR.sol\";\n\ncontract SellTokenR{\n\taddress payable admin;\n\tTokenR public tokenContract;\n\tuint256 public tokenPrice;\n\tuint256 public tokenSold;\n\n\tevent TokenBuy(\n\t\taddress _buyer,\n\t\tuint256 _numberOfTokens\n\t);\n\n\tevent TokenSell(\n\t\taddress _seller,\n\t\tuint256 _numOfTokens\n\t);\n\n\tconstructor(TokenR _tokenContract, uint256 _tokenPrice) public{\n\t\tadmin = msg.sender;\n\t\ttokenContract = _tokenContract;\n\t\ttokenPrice = _tokenPrice;\n\t}\n\n\tmodifier onlyAdmin(){\n\t\trequire (msg.sender == admin, 'account not authorised to end sale.');\n\t\t_;\n\t}\n\n\tfunction multiply(uint x, uint y) internal pure returns(uint z){\n\t\trequire(y == 0 || (z = x * y) / y == x);\n\t}\n\n\tfunction IsAdmin(address inputAddress) public view returns(bool){\n\t\treturn (inputAddress == admin);\n\t}\n\n\tfunction buyTokens (uint256 _numOfTokens) public payable {\n\t\t//trigger sell event\n\t\trequire(msg.value == multiply(_numOfTokens, tokenPrice), 'less wei sent for the specified tokens');\n\t\trequire(tokenContract.balanceOf(address(this)) >= _numOfTokens, 'sell contract does not have these many tokens');\n\t\trequire(tokenContract.transfer(msg.sender, _numOfTokens) == true, 'token buy executed');\n\n\t\ttokenSold += _numOfTokens;\n\t\temit TokenBuy(msg.sender, _numOfTokens);\n\t}\n\n\tfunction sellTokens(uint256 _numOfTokens) public  {\n\t\trequire(tokenContract.balanceOf(msg.sender) >= _numOfTokens, 'not enough tokens');\n\t\trequire(address(this).balance >= _numOfTokens * 1e10, 'contract does not have enough eth in balance for which user wants to sell');\n\n\t\t//send tokens from msg.sender to address(this)\n\t\ttokenContract.remit(address(this), _numOfTokens);\n\t\tmsg.sender.transfer(_numOfTokens * 1e10); //transfer wei\n\t\temit TokenSell(msg.sender, _numOfTokens);\n\t}\n\t\n\tfunction endSell() onlyAdmin public{\n\t\t//transfer amount of wei and tokens from contract to admin\n\t\tadmin.transfer(address(this).balance);\n\t\trequire(tokenContract.transfer(admin, tokenContract.balanceOf(address(this))));\n\t\tselfdestruct(admin);\n\t}\n}\n",
  "sourcePath": "/Users/anupamkumar/blockchain/TokenR/contracts/SellTokenR.sol",
  "compiler": {
    "name": "solc",
    "version": "0.5.16+commit.9c3226ce.Emscripten.clang"
  },
  "schemaVersion": "3.3.4",
  "updatedAt": "2021-06-12T16:44:23.416Z",
  "devdoc": {
    "methods": {}
  },
  "userdoc": {
    "methods": {}
  }
}