{
  "contractName": "SellTokenR",
  "abi": [
    {
      "inputs": [
        {
          "internalType": "contract TokenR",
          "name": "_tokenContract",
          "type": "address"
        },
        {
          "internalType": "uint256",
          "name": "_tokenPrice",
          "type": "uint256"
        }
      ],
      "payable": false,
      "stateMutability": "nonpayable",
      "type": "constructor"
    },
    {
      "anonymous": false,
      "inputs": [
        {
          "indexed": false,
          "internalType": "address",
          "name": "_buyer",
          "type": "address"
        },
        {
          "indexed": false,
          "internalType": "uint256",
          "name": "_numberOfTokens",
          "type": "uint256"
        }
      ],
      "name": "TokenSell",
      "type": "event"
    },
    {
      "constant": true,
      "inputs": [],
      "name": "tokenContract",
      "outputs": [
        {
          "internalType": "contract TokenR",
          "name": "",
          "type": "address"
        }
      ],
      "payable": false,
      "stateMutability": "view",
      "type": "function"
    },
    {
      "constant": true,
      "inputs": [],
      "name": "tokenPrice",
      "outputs": [
        {
          "internalType": "uint256",
          "name": "",
          "type": "uint256"
        }
      ],
      "payable": false,
      "stateMutability": "view",
      "type": "function"
    },
    {
      "constant": true,
      "inputs": [],
      "name": "tokenSold",
      "outputs": [
        {
          "internalType": "uint256",
          "name": "",
          "type": "uint256"
        }
      ],
      "payable": false,
      "stateMutability": "view",
      "type": "function"
    },
    {
      "constant": false,
      "inputs": [
        {
          "internalType": "uint256",
          "name": "_numOfTokens",
          "type": "uint256"
        }
      ],
      "name": "buyTokens",
      "outputs": [],
      "payable": true,
      "stateMutability": "payable",
      "type": "function"
    }
  ],
  "bytecode": "0x608060405234801561001057600080fd5b506040516104ff3803806104ff8339818101604052604081101561003357600080fd5b810190808051906020019092919080519060200190929190505050336000806101000a81548173ffffffffffffffffffffffffffffffffffffffff021916908373ffffffffffffffffffffffffffffffffffffffff16021790555081600160006101000a81548173ffffffffffffffffffffffffffffffffffffffff021916908373ffffffffffffffffffffffffffffffffffffffff160217905550806002819055505050610418806100e76000396000f3fe60806040526004361061003f5760003560e01c80633610724e14610044578063519ee19e1461007257806355a373d61461009d5780637ff9b596146100f4575b600080fd5b6100706004803603602081101561005a57600080fd5b810190808035906020019092919050505061011f565b005b34801561007e57600080fd5b50610087610332565b6040518082815260200191505060405180910390f35b3480156100a957600080fd5b506100b2610338565b604051808273ffffffffffffffffffffffffffffffffffffffff1673ffffffffffffffffffffffffffffffffffffffff16815260200191505060405180910390f35b34801561010057600080fd5b5061010961035e565b6040518082815260200191505060405180910390f35b61012b81600254610364565b3414610182576040517f08c379a00000000000000000000000000000000000000000000000000000000081526004018080602001828103825260268152602001806103be6026913960400191505060405180910390fd5b80600160009054906101000a900473ffffffffffffffffffffffffffffffffffffffff1673ffffffffffffffffffffffffffffffffffffffff166370a08231306040518263ffffffff1660e01b8152600401808273ffffffffffffffffffffffffffffffffffffffff1673ffffffffffffffffffffffffffffffffffffffff16815260200191505060206040518083038186803b15801561022257600080fd5b505afa158015610236573d6000803e3d6000fd5b505050506040513d602081101561024c57600080fd5b810190808051906020019092919050505011156102b4576040517f08c379a000000000000000000000000000000000000000000000000000000000815260040180806020018281038252602d815260200180610391602d913960400191505060405180910390fd5b806003600082825401925050819055507fce63ca7dc8dfc0313cea1035f873e3706e0161f9895f670682c0dab3969e36203382604051808373ffffffffffffffffffffffffffffffffffffffff1673ffffffffffffffffffffffffffffffffffffffff1681526020018281526020019250505060405180910390a150565b60035481565b600160009054906101000a900473ffffffffffffffffffffffffffffffffffffffff1681565b60025481565b600080821480610381575082828385029250828161037e57fe5b04145b61038a57600080fd5b9291505056fe73656c6c20636f6e747261637420646f6573206e6f742068617665207468657365206d616e7920746f6b656e736c657373207765692073656e7420666f72207468652073706563696669656420746f6b656e73a265627a7a72315820a226dae407440e477d1db12acca24d2533b592aa9e4c7c499819e9d74043fd8a64736f6c63430005100032",
  "source": "pragma solidity >=0.4.22 <0.9.0;\n\nimport \"./TokenR.sol\";\n\ncontract SellTokenR{\n\taddress admin;\n\tTokenR public tokenContract;\n\tuint256 public tokenPrice;\n\tuint256 public tokenSold;\n\n\tevent TokenSell(\n\t\taddress _buyer,\n\t\tuint256 _numberOfTokens\n\t);\n\n\tconstructor(TokenR _tokenContract, uint256 _tokenPrice) public{\n\t\tadmin = msg.sender;\n\t\ttokenContract = _tokenContract;\n\t\ttokenPrice = _tokenPrice;\n\t}\n\tfunction multiply(uint x, uint y) internal pure returns(uint z){\n\t\trequire(y == 0 || (z = x * y) / y == x);\n\t}\n\n\tfunction buyTokens (uint256 _numOfTokens) public payable {\n\t\t//trigger sell event\n\t\trequire(msg.value == multiply(_numOfTokens, tokenPrice), 'less wei sent for the specified tokens');\n\t\trequire(tokenContract.balanceOf(address(this)) <= _numOfTokens, 'sell contract does not have these many tokens');\n\t\ttokenSold += _numOfTokens;\n\t\temit TokenSell(msg.sender, _numOfTokens);\n\t}\n\t\n}\n",
  "sourcePath": "/Users/anupamkumar/blockchain/TokenR/contracts/SellTokenR.sol",
  "compiler": {
    "name": "solc",
    "version": "0.5.16+commit.9c3226ce.Emscripten.clang"
  },
  "schemaVersion": "3.3.4",
  "updatedAt": "2021-05-27T11:39:34.651Z",
  "networkType": "ethereum",
  "devdoc": {
    "methods": {}
  },
  "userdoc": {
    "methods": {}
  }
}